:100000000C943E000C9428010C945E010C945B004F
:100010000C945B000C945B000C945B000C945B00F4
:100020000C945B000C945B000C945B000C945B00E4
:100030000C945B000C9484010C945B000C945B00AA
:100040000C945B000C945B000C945B000C945B00C4
:100050000C945B000C945B000C945B000C945B00B4
:100060000C945B000C945B000C945B000C945B00A4
:100070000C945B000C945B000C945B0011241FBE7D
:10008000CFEFD8E0DEBFCDBF11E0A0E0B1E0E2E20B
:10009000F4E002C005900D92A830B107D9F721E035
:1000A000A8E0B1E001C01D92AC30B207E1F70E94B8
:1000B000D7000C940F020C940000411109C0E82FE6
:1000C000F0E0ED5FFE4F808160FB87F982B9089513
:1000D00080E8689FB00111246F6362B90895869526
:1000E000982F9F70983040F4837091E001C0990F71
:1000F0008A95EAF7892F08958FE00895282F26958D
:10010000922F9F70983058F430E0209530952370EE
:10011000332781E001C0880F2A95EAF7089583709C
:10012000823010F080E008958FE00895282F269502
:10013000922F9F70943038F4237081E001C0880FB3
:100140002A95EAF70895983058F430E020953095D4
:100150002370332781E001C0880F2A95EAF70895BC
:1001600080FF02C080E008958FE008951092090199
:1001700010926F0082E086BB8FEF88BD18B8109296
:10018000810083E08DBB8CBB08951092090181E052
:1001900088B98091000188BD8CE08093810082E065
:1001A00080936F0086BB8DBB83E08CBB08958FEF7F
:1001B00081B99FE097B990E194B91AB888BD93E3EB
:1001C00094BD91E095BD22EE36E1309389002093F5
:1001D00088001092800098E0909381008093B30093
:1001E00080E48093B00089E08093B1008AE080933E
:1001F000690083E08DBB8CBB789410920A01109249
:10020000080114E0D3E0C1E080910801811105C02C
:1002100089B1837080930B0107C04C9B03C0D093BE
:100220000B0102C010930B0140910A01609108017B
:1002300080910B010E945D00809108019C2F981B0A
:1002400090930801B99BFECF87B3827087BBDCCF48
:100250001F920F920FB60F9211242F933F934F933B
:100260005F936F937F938F939F93AF93BF93EF931E
:10027000FF934C9B04C089B18370833031F44C9957
:1002800006C089B18370833011F00E94C50080914F
:100290000A01813011F410920A01FF91EF91BF9190
:1002A000AF919F918F917F916F915F914F913F910E
:1002B0002F910F900FBE0F901F9018951F920F92C5
:1002C0000FB60F9211242F933F934F935F936F9329
:1002D0007F938F939F93AF93BF93EF93FF930E946E
:1002E000B60010920A01FF91EF91BF91AF919F91DB
:1002F0008F917F916F915F914F913F912F910F90CF
:100300000FBE0F901F9018951F920F920FB60F926D
:1003100011242F933F934F935F936F937F938F930A
:100320009F93AF93BF93EF93FF934C9B33C089B1DF
:100330008370833079F1809109018F5F8093090187
:1003400080910901803230F4809109010E946F0090
:1003500088B954C080910901803648F48091010128
:1003600088BD809109010E947E0088B947C08091B4
:10037000090188234CF08091020188BD8091090118
:100380000E94960088B93AC00E94B60081E080932E
:100390000A0134C04C9932C089B18370833071F145
:1003A000809109018F5F809309018091090180325A
:1003B00030F4809109010E946F0088B91FC08091BC
:1003C0000901803448F48091010188BD80910901C0
:1003D0000E947E0088B912C080910901803648F4DD
:1003E0008091020188BD809109010E94960088B920
:1003F00005C00E94B60081E080930A01FF91EF9151
:10040000BF91AF919F918F917F916F915F914F912C
:100410003F912F910F900FBE0F901F901895F89459
:02042000FFCF0C
:08042200E6801A08014079543C
:00000001FF
